:020000040800F2
:10000000E0040020A10100080F110008B90F00084A
:100010000D110008AD020008751400080000000072
:1000200000000000000000000000000013110008A4
:10003000AF020008000000001111000815110008AF
:10004000BB010008BB010008BB010008BB010008A0
:10005000BB010008BB010008BB010008BB01000890
:10006000BB010008BB010008BB010008BB01000880
:10007000BB010008BB010008BB010008BB01000870
:10008000BB010008BB010008BB010008BB01000860
:10009000BB010008BB010008BB010008BB01000850
:1000A000BB010008BB010008BB010008BB01000840
:1000B000BB010008BB010008BB010008BB01000830
:1000C000BB010008BB010008BB010008BB01000820
:1000D000BB010008BB010008BB010008BB01000810
:1000E000BB010008BB010008BB010008BB01000800
:1000F000BB010008BB010008BB010008BB010008F0
:10010000BB010008BB010008BB010008BB010008DF
:10011000BB010008BB010008BB010008BB010008CF
:10012000BB010008BB010008BB010008BB010008BF
:10013000BB010008BB010008BB010008BB010008AF
:10014000BB010008BB010008BB010008BB0100089F
:10015000BB010008BB010008BB010008BB0100088F
:10016000BB010008BB010008BB010008BB0100087F
:10017000BB010008BB010008BB0100080000000033
:10018000BB010008BB010008DFF810D000F07CF8CC
:1001900000480047B5140008AFF30080E0040020D9
:1001A0000648804706480047FEE7FEE7FEE7FEE711
:1001B000FEE7FEE7FEE7FEE7FEE7FEE7AD1100081B
:1001C000890100082DE9F05F0546002092469B4614
:1001D00088460646814640241BE02846414647465D
:1001E000224600F041F853465A46C01A914110D3B6
:1001F00011461846224600F028F82D1A67EB010830
:100200004F4622460120002100F01FF817EB00099D
:100210004E41201EA4F10104DFDC484631462A4647
:100220004346BDE8F09FD2B201E000F8012B491E21
:10023000FBD270470022F6E710B513460A46044683
:100240001946FFF7F0FF204610BD202A04DB203AB4
:1002500000FA02F1002070479140C2F1200320FA19
:1002600003F3194390407047202A04DB203A21FA17
:1002700002F00021704721FA02F3D040C2F12002BF
:100280009140084319467047064C074D06E0E06868
:1002900040F0010394E8070098471034AC42F6D3CD
:1002A000FFF776FFE817000808180008FEE7704718
:1002B00070B5044600F010F90546601C02D00448F1
:1002C0000078044400F008F9401BA042FAD370BD46
:1002D000000000202DE9F84FDFF8BCA10022012525
:1002E0000AF1040B03264FF00F090BF1040E00BFB7
:1002F0000B6805FA02F42340A34270D10F7907F08E
:100300000307012F01D0022F16D187684FEA420858
:1003100006FA08FC27EA0C07D1F80CC00CFA08FC16
:100320004CEA070CC0F808C04768A7430C79C4F32F
:10033000001494403C4344600C79E443A4070AD081
:10034000C4684FEA420C06FA0CF7BC438F6807FA00
:100350000CF72743C7600C7904F00304022C12D178
:10036000D40800EB840CDCF820405707FF0E09FA94
:1003700007F824EA0804D1F8108008FA07F848EAD8
:100380000408CCF8208004684FEA420C06FA0CF707
:10039000BC430F7907F0030707FA0CF72743076000
:1003A0004C6814F4403F70D03C4C276847F48047B9
:1003B0002760246822F0030704F480440094384C3A
:1003C00007EB040CDCF8084897074FEA177809FA9E
:1003D00008F7BC43334FB84202D1002724E054E071
:1003E000314FB84201D101271EE0304FB84201D150
:1003F000022719E02E4FB84201D1032714E02D4FF8
:10040000B84201D104270FE02B4FB84201D1052794
:100410000AE02A4FB84201D1062705E0284FB8422A
:1004200001D1072700E0082707FA08F72743CCF88F
:100430000878DAF800405746D1F804C09C435FEAD8
:10044000CC3C00D51C433C60DBF800405F46D1F853
:1004500004C09C435FEA8C3C00D51C433C60DEF842
:1004600000407746D1F804C09C435FEACC2C00D50D
:100470001C433C60084F0C373C68D1F804C09C43D7
:100480005FEA8C2C00D51C433C60521C102AFFF400
:100490002FAFBDE8F88F0000003C01404438024017
:1004A0000030014000000240000402400008024009
:1004B000000C0240001002400014024000180240EC
:1004C000001C02400069084000D0012070470AB1BA
:1004D000816170470904FBE70148806870470000AC
:1004E0000000002002488168027811448160704752
:1004F000000000200B4810B5016841F40071016054
:10050000016841F480610160016841F4807101601B
:10051000032000F061F8002000F006F800F024F855
:10052000002010BD003C024070B50D4D04464FF454
:100530007A712878B1FBF0F00A490968B1FBF0F054
:1005400000F0FCFA48B9102C07D200222146501EB8
:1005500000F022F800206C6070BD012070BD00002A
:10056000000000200C0000200A4808B5016841F492
:1005700080410160006800F4804000900548001F41
:10058000016841F080510160006800F080500090E7
:1005900008BD000044380240F0B40E4B1B680C4606
:1005A000C3F30223C3F10705042D00D90425191D47
:1005B000072901D2002300E0DB1E012606FA05F11F
:1005C000491E214099409E40761E16403143F0BCA2
:1005D00000F051BF0CED00E0064900F0070208688A
:1005E0004FF6FF03184040EA0220034A1043086018
:1005F000704700000CED00E00000FA052DE9F0471F
:100600000E46050065D0DFF81481D8F80000F7B277
:1006100000F00700B04207D288F80070D8F8000058
:1006200000F00700B04254D128683D4C810712D534
:10063000400703D5206840F4E05020602878000788
:1006400003D5206840F4604020602068A96820F04D
:10065000F000084320602878C0072DD03049686832
:100660000839012812D0022813D0032811D00968B4
:10067000890700292DDA216821F003010143216057
:10068000FFF72AFF814641F2883A0EE009688903A4
:10069000EFE709688901ECE7FFF71EFFA0EB09010E
:1006A000514502D90320BDE8F0872068696800F051
:1006B0000C00B0EB810FEFD1D8F80010404601F0EC
:1006C0000701B14207D90770006800F00700B04287
:1006D00001D00120E7E72878400705D52068E968C0
:1006E00020F4E050084320602878000706D52068F1
:1006F000296920F4604040EAC100206000F038F829
:100700002168084AC1F30311515CC84006490860DA
:1007100006480068FFF708FF0020C4E7003C0240DD
:1007200008380240D01700080C0000200400002008
:100730000448054900680968044AC1F38221515CF4
:10074000C84070470C00002008380240E01700083D
:100750000448054900680968044AC1F34231515C04
:10076000C84070470C00002008380240E01700081D
:10077000154810B5006810F00C02144813D0411051
:10078000042A0FD0082A0ED10F4C241F2268236898
:1007900002F03F025B0207D52068C0F38810A0FB7F
:1007A000010106E0084610BD2168C1F38811A1FBD4
:1007B00000010023FFF706FD2168C1F30141491C38
:1007C0004900B0FBF1F010BD083802400024F400ED
:1007D0002DE9F84F04006ED02078DFF84C93C00765
:1007E000A9F104054AD009F104000168C1F38101AF
:1007F000012908D00068C0F3810002280AD1D9F885
:100800000000400206D52868800337D560680028BC
:10081000E1D033E06068B0F5803F10D0B0F5A02F94
:10082000286810D020F480302860286820F48020C8
:1008300028606068A8B1FFF74FFE06460DE0286803
:1008400040F48030F4E740F480202860F7E700BFF0
:10085000FFF742FE801B642873D828688003F7D511
:100860000CE0FFF739FE064605E000BFFFF734FE57
:10087000801B6428F0D828688003F7D42078DFF83C
:10088000AC8280074FF0000A3ED5A748001D0168E2
:1008900011F00C0F08D00068C0F3810002280BD1C2
:1008A000D9F80000400207D42868800716D5E06810
:1008B000012800D112E033E1E068B8B10120C8F8A6
:1008C0000000FFF709FE064605E000BFFFF704FE43
:1008D000801B0228C0D828688007F7D528682169BE
:1008E00020F0F80040EAC10028600DE0C8F800A040
:1008F000FFF7F2FD064604E0FFF7EEFD801B02283D
:100900001FD828688007F7D42078000722D5864FA3
:1009100087486169703771B101210160FFF7DCFD23
:10092000064604E0FFF7D8FD801B022809D8386886
:100930008007F7D50EE0C0F800A0FFF7CDFD064612
:1009400005E082E0FFF7C8FD801B02287DD83868EB
:100950008007F7D42078400768D5DFF8CCB10027AE
:100960000BF13C0BDBF80000C0000BD4DBF80010EF
:1009700041F08051CBF80010DBF80000012700F0B7
:10098000805000906B4E3068C00510D4306840F441
:1009900080703060FFF7A0FD009005E0FFF79CFD40
:1009A0000099401A022850D83068C005F6D55E4E2E
:1009B000A0686C3601280FD00528306810D020F0D0
:1009C00001003060306820F004003060A068B8B1E9
:1009D000FFF782FD00900FE0306840F00100F4E77F
:1009E00040F004003060F7E7FFF776FD0099411A08
:1009F00041F28830814266D830688007F4D50EE035
:100A0000FFF76AFD009007E0FFF766FD0099411AC5
:100A100041F28830814256D830688007F4D42FB133
:100A2000DBF8001021F08051CBF80010A069C8B3AA
:100A30003D49091D0968C1F3810102294AD00228F4
:100A4000504607D0C8F8600000E03CE0FFF744FDE6
:100A500004463BE04746C8F86000FFF73DFD064608
:100A600005E000BFFFF738FD801B02282BD828685F
:100A70008001F7D4D4E907010843A16A2E4A490846
:100A800002EB0141626A41EA8211084394F82C109A
:100A900040EA0161C9F8001001203866FFF71CFD2B
:100AA000044606E03EE000BFFFF716FD001B0228EB
:100AB00009D828688001F7D534E000BFFFF70CFDA6
:100AC000001B022802D90320BDE8F88F28688001A6
:100AD000F4D427E00128F7D0D9F80000E26900F447
:100AE000800191421CD1226A00F03F01914217D14E
:100AF00047F6C071626A0140B1EB821F10D1A26A51
:100B00004FF0FF3300F4403103EB5202B1EB024FE0
:100B100006D194F82C1000F07060B0EB016F01D09A
:100B20000120D1E70020CFE704380240000047420F
:100B3000800E4742007000400000FFFF10B5401ECD
:100B4000B0F1807F01D3012010BD4FF0E02460613F
:100B50000F21601700F08FFC0020A06107202061AA
:100B6000002010BD70B590F83C20012A32D001243D
:100B700080F83C40022280F83D2003685A689D6856
:100B800022F070060A6832435A60134B02689A4298
:100B900014D0B2F1804F11D0104B9A420ED0104BAE
:100BA0009A420BD00F4B9A4208D00F4B9A4205D075
:100BB0000E4B9A4202D00E4B9A4204D1496825F05E
:100BC00080031943916080F83D40002180F83C107B
:100BD000084670BD022070BD0000014000040040C6
:100BE00000080040000C00400004014000400140AB
:100BF0000018004010B5040003D094F83D0010B177
:100C000007E0012010BD002084F83C00204600F0E1
:100C10001FF8022084F83D00211D206800F0CEFA64
:100C2000012084F8460084F83E0084F83F0084F8F0
:100C3000400084F8410084F8420084F8430084F8BE
:100C4000440084F8450084F83D00002010BD0000F9
:100C500008B500680649884208D10648016841F095
:100C600001010160006800F00100009008BD000073
:100C7000000001404438024090F83D10012901D0A5
:100C800001207047022180F83D1000681149884218
:100C900014D0B0F1804F11D00F4988420ED00F49C7
:100CA00088420BD00E49884208D00E49884205D0B0
:100CB0000D49884202D00D49884204D1816801F073
:100CC0000701062903D0016841F0010101600020FD
:100CD0007047000000000140000400400008004090
:100CE000000C00400004014000400140001800409A
:100CF00070B5044690F83C000025012817D0012665
:100D000084F83C60022084F83D002068826822F06C
:100D1000770222F47F4282600868502838D00DDCC8
:100D200020284FD005DC90B3102811D14AE00220D2
:100D300070BD302846D040280AD13BE060282FD033
:100D400070280DD0B0F5805F03D0B0F5005F12D0F1
:100D5000012584F83D60002084F83C00284670BDE1
:100D6000CB68D1E90121206800F08CFA2068816805
:100D700041F0770109E0CB68D1E90121206800F05A
:100D800081FA2068816841F480418160E1E719E0DF
:100D9000CA684968206800F087FA5021206806E098
:100DA000CA684968206800F090FA6021206800F065
:100DB00073FACEE7CA684968206800F075FA4021E6
:100DC0002068F4E7226801461046F0E770B5040099
:100DD00004D094F83D00002510B106E0012070BD5C
:100DE00084F83C50204600F023F8242084F83D008D
:100DF0002068C16821F40051C160204600F078FAF3
:100E00002068016921F4904101612068416921F065
:100E10002A0141612068C16841F40051C160256424
:100E2000202084F83D0084F83E00002070BD0000C2
:100E3000F0B587B0044614216846FFF7FBF929494D
:100E4000274B22682748103903240225012608274A
:100E50009A4216D1026842F400220260006800F44F
:100E600000200590086840F00100086008688DE8DF
:100E7000700000F00100CDE90470694603941A483F
:100E80002AE01A4B9A4229D1026842F48012026089
:100E9000006800F480100590086840F004000860C5
:100EA000086800F004000590086840F00800086039
:100EB0000868694600F00800059098148DE8610004
:100EC000CDE903470A48FFF705FA04208DE86100E1
:100ED000CDE9034769460748FFF7FCF907B0F0BDC5
:100EE000004C0040403802400000024000500040EA
:100EF00000080240000C02402DE9F84F044690F82B
:100F00003E009A4616460D46202853D1FDB1F6B153
:100F100094F83C0001284DD0012084F83C000027C3
:100F20002764222084F83E002763FFF7D5FAA685C0
:100F30008146E685A0684FF48058404501D120697C
:100F400040B12E465FF0000584F83C7027E0012098
:100F5000BDE8F88F0026F7E74B4600222021204607
:100F6000CDF800A000F04AFA08B10320F0E726B15E
:100F7000A06840451BD038B108E020684068C0F345
:100F8000080025F8020B07E0206980B1206840685E
:100F900000F07F0006F8010BE08D401EE085E08D3B
:100FA0000028D9D1202084F83E000020D0E7206816
:100FB0004068EFE70220CBE7FEE700002DE9F043B1
:100FC00087B014216846FFF735F9324800240168DC
:100FD00041F010010160016801F010010591016804
:100FE00041F004010160016801F00401059101680C
:100FF00041F080010160016801F080010591016804
:1010000041F001010160016801F0010105910168F1
:1010100041F00801016000681F4F00F008000590D2
:1010200000220C213846FFF752FADFF8709046F2A2
:101030000306002231464846FFF749FADFF8608090
:10104000002204214046FFF742FA0C2000900125BF
:10105000CDE90154694638460394FFF73BF9009601
:10106000CDE90154694648460394FFF733F904205B
:101070000090CDE90154694640460394FFF72AF9F0
:1010800020208DE8310069464846FFF723F907B074
:10109000BDE8F083303802400010024000080240F2
:1010A0000000024010B586B0002417480094019457
:1010B0000294039404941349059401604721C0E904
:1010C00001144FF6FF71C0E9031444618461FFF716
:1010D00091FD08B172B6FEE74FF48050009069466A
:1010E0000948FFF705FE08B172B6FEE7049404A9AB
:1010F00005480594FFF736FD002801D072B6FEE7DB
:1011000006B010BD0000014010000020FEE7FEE721
:1011100070477047FFF7E6B930B593B030216846A5
:10112000FFF788F814210CA8FFF784F81D48002564
:10113000016841F080510160006800F0805011901A
:101140001948016841F4804101600068022400F4FC
:101150008040119001200090000401908001CDE9B1
:10116000064008AA0420A82182E813000B906846D4
:10117000FFF72EFB08B172B6FEE70CA90F2081E83D
:1011800031004FF4A0500F904FF480501090052183
:101190000CA8FFF733FA002801D072B6FEE713B0AF
:1011A00030BD000040380240007000400248016835
:1011B00041F470010160704788ED00E0F0B502680D
:1011C000254C264D264E274F274B4FF0804CA042F2
:1011D00009D0604507D0A84205D0B04203D0B8423C
:1011E00001D0984204D122F0700E4A6842EA0E0201
:1011F000A0421BD0604519D0A84217D0B04215D0EC
:10120000B84213D0984211D0184DA8420ED0184DB4
:10121000A8420BD0174DA84208D0174DA84205D0C0
:10122000164DA84202D0164DA84203D122F44075B3
:10123000CA682A434D6922F080022A4302608A6804
:10124000C2620A688262A04201D0984201D1096953
:10125000016301214161F0BD000001400004004034
:1012600000080040000C0040000401400040014024
:10127000004401400048014000180040001C0040AC
:101280000020004010B5846842EA032224F47F4421
:101290000A432243826010BD826822F070020A4332
:1012A00042F007018160704710B5036A046A24F0B8
:1012B00001040462846924F0F00444EA021423F077
:1012C0000A020A438461026210BD10B5036A23F06A
:1012D000100303628369046A23F4704343EA023211
:1012E00024F0A00343EA01118261016210BD0000F5
:1012F00070B5044600680169E26821F44051114369
:1013000001612169A068E2690843616911430843EA
:101310002168CA6849F20C639A430243CA60206894
:101320004169A26921F4407111434161314920684A
:10133000884202D03049884202D1FFF709FA01E021
:10134000FFF7F6F9E2690023192164253226B2F588
:10135000004F626828D0A0FB0101930F9200FEF7B6
:1013600031FF0146B0FBF5F06FF01802504301EB7E
:10137000800006EB0010B0FBF5F000F0F002B1FBCE
:10138000F5F002EB0012B1FBF5F06FF018035843D3
:1013900001EB800006EB0010B0FBF5F000F00F0051
:1013A00021681044886070BDA0FB010192185B4168
:1013B000FEF708FF0146B0FBF5F00201B1FBF5F0C6
:1013C0006FF01803584301EB800006EBC000B0FB40
:1013D000F5F000F0F80002EB4002B1FBF5F05843E5
:1013E00001EB800006EBC000B0FBF5F000F0070059
:1013F000D6E7000000100140001401402DE9F04143
:10140000984617460E460446069D27E0681C25D0E0
:101410002DB1FFF761F8A0EB0800A8421ED92068A3
:101420000C3050E8001F21F4D07140E80012002A6F
:10143000F5D12068143050E8001F21F0010140E888
:101440000012002AF5D1202084F83D0084F83E00E7
:10145000002084F83C000320BDE8F081206800688B
:1014600036EA000004D00020B842CFD00020F3E7D5
:101470000120F9E7FEE70907090E002804DB00F167
:10148000E02080F80014704700F00F0000F1E02029
:1014900080F8141D704702E008C8121F08C1002A16
:1014A000FAD170477047002001E001C1121F002AE5
:1014B000FBD170470EB500274FF0010868208DF86A
:1014C00004708DF808003D464646C1463C460097EC
:1014D000FFF710F8FFF720FEFFF770FDFFF7E2FDC2
:1014E0008C488B494FF4165B0160C0E901B74FF09F
:1014F0000C0AC760C0E9047A8761C761FFF766FC20
:1015000008B172B6FEE78348834944300160C0E900
:1015100001B7C760C0E9047A8761C761FFF756FC6D
:1015200008B172B6FEE77B484838FFF7A5FB7B4F52
:1015300040F6B83A4FF4804B76486423012201A963
:101540004430FFF7D9FC002879D1002D03DD9DF848
:101550000400642807D0B8F1000F29DD9DF80400CD
:101560006D2825D112E0544652460021502000F04B
:10157000E3F822460121502000F004F900254FF045
:101580000108C820FEF794FE0024E7E754465246BF
:101590000121502000F0D0F822460021502000F018
:1015A000F1F84FF000080125C820FEF781FE002465
:1015B0009DF80400782810D07A2810D0632810D025
:1015C000762810D0622811D06E2811D0732813D03D
:1015D000612814D0722815D02CE001260AE00026DC
:1015E00008E0012000E00020814603E0012000E047
:1015F00000200090002422E00126B146F6E70026F4
:10160000B146F5E701260020B1460090012D16D124
:10161000544652460021502000F08EF82246012107
:10162000502000F0AFF800254FF00108C820FEF769
:101630003FFE00249DF80400702800D1641C642340
:10164000012202A93348FFF757FCA0B9B9F1010FF5
:1016500011D1544652460121502000F06DF8224627
:101660000021502000F08EF84FF000080125C8201E
:10167000FEF71EFE002420213846FEF723FF012836
:101680001AD1012D18D10098012815D14FF4FA6014
:10169000FEF70EFE544652460021502000F04CF852
:1016A00022460121502000F06DF800254FF001087E
:1016B000C820FEF7FDFD0024012E1BD12021384655
:1016C000FEF700FFB0B9002C14DDB8F1010F11D105
:1016D000544652460121502000F02EF822460021A7
:1016E000502000F04FF84FF000080125C820FEF709
:1016F000DFFD002420213846FEF7E4FE28B1012258
:1017000059463846FEF7E3FE16E70022F8E70000E8
:10171000004C0040580000200050004000080240EB
:10172000044900220B685A6209684A6A8242FCD363
:1017300070470000100000202DE9F041104D1746C1
:10174000064631B1002201212846FEF7C0FE0024E2
:1017500012E00122F7E7012202212846FEF7B7FE38
:101760003846FFF7DDFF002202212846FEF7AFFED4
:101770003846FFF7D5FF641CB442ECDBBDE8F081CE
:10178000000802402DE9F041104D1746064631B1E0
:10179000002204212846FEF79AFE002412E00122CE
:1017A000F7E7012208212846FEF791FE3846FFF7A9
:1017B000B7FF002208212846FEF789FE3846FFF7CA
:1017C000AFFF641CB442ECDBBDE8F08100100240C6
:1017D00000000000000000000102030406070809E1
:1017E00000000000010203040818000800000020A7
:1017F00010000000961400081818000810000020BF
:10180000D0040000A6140008010000001000000031
:08181000000000000024F400B8
:040000050800018965
:00000001FF
