:020000040000FA
:060000000A128A110C280F
:10000800FE00030EF0000A08F1000A128A15822B7E
:100018000A128A110F28FA01FB0183136030840049
:100028006E300A128A1545230A128A11A0308400FC
:10003800AA300A128A1545230A128A1183010A1264
:100048008A15DA2D831203135708803AFF0080308F
:100058007F02031D3128C8305602031C3428352876
:100068007628831203135908803AFF0083307F02F1
:10007800031D402821305802031C432844287628B1
:10008800013083120313CC070318CD0A0030CD07C3
:10009800CA01CB01C401C501DC01DD014D08803A6C
:1000A800FF0080307F02031D5B2801304C02031CD7
:1000B8005E285F287628013083120313DE070318B1
:1000C800DF0A0030DF071A3083120313BB005E30EB
:1000D800BA006D30B900B90B6F28BA0B6F28BB0B8B
:1000E8006F287628831203135708803AFF00803060
:1000F8007F02031D8128C8305602031884288528EA
:10010800B128831203135908803AFF0083307F0215
:10011800031D902821305802031893289428B128E9
:10012800831203135908803AFF0080307F02031DB1
:100138009F28C8305802031CA228A328B1280130E0
:1001480083120313DC070318DD0A0030DD07CC0136
:10015800CD01CA01CB01C401C5018312031357089D
:10016800803AFF0083307F02031DBC2821305602ED
:10017800031CBF28C0282129831203135908803A79
:10018800FF0083307F02031DCB282130580203185B
:10019800CE28CF282129831203135908803AFF005B
:1001A80080307F02031DDA28C8305802031CDD287E
:1001B800DE2821291A3083120313BB005E30BA00EF
:1001C8006D30B900B90BE628BA0BE628BB0BE62858
:1001D800ED28013083120313DE000030DF00DA015E
:1001E800DB01CC01CD01CA01CB01C401C50101303D
:1001F800C6000030C700C801C9010130D000003076
:10020800D1000130D2000030D300D401D501CE0195
:10021800CF0172300A128A11F1270A128A110330AB
:1002280083120313BB008A30BA005530B900B90BEA
:100238001B29BA0B1B29BB0B1B29831203135E084E
:100248005F04031D282929292D290830DE000030E4
:10025800DF0009305E065F04031D3329342938297D
:100268000130DE000030DF005E035F04031D3D291E
:100278003E294F290730B9003908F60002300A1222
:100288008A1547240A128A1138300A128A15BE23A1
:100298000A128A11F72902305E065F04031D5529E8
:1002A800562967290730B9003908F60002300A12C2
:1002B8008A1547240A128A1131300A128A15BE2378
:1002C8000A128A11F72903305E065F04031D6D299F
:1002D8006E297F290730B9003908F60002300A1262
:1002E8008A1547240A128A1115300A128A15BE2364
:1002F8000A128A11F72904305E065F04031D852956
:10030800862997290730B9003908F60002300A1201
:100318008A1547240A128A111C300A128A15BE232C
:100328000A128A11F72905305E065F04031D9D290C
:100338009E29AF290730B9003908F60002300A12A1
:100348008A1547240A128A1123300A128A15BE23F5
:100358000A128A11F72906305E065F04031DB529C3
:10036800B629C7290730B9003908F60002300A1241
:100378008A1547240A128A1146300A128A15BE23A2
:100388000A128A11F72907305E065F04031DCD297A
:10039800CE29DF290730B9003908F60002300A12E1
:1003A8008A1547240A128A114D300A128A15BE236B
:1003B8000A128A11F72908305E065F04031DE52931
:1003C800E629F7290730B9003908F60002300A1281
:1003D8008A1547240A128A113F300A128A15BE2349
:1003E8000A128A11F7290D3083120313B90039084C
:1003F800F60002300A128A1547240A128A11673059
:100408000A128A15BE230A128A11831203135A0884
:100418005B04031D102A112A212A0E30B90039085D
:10042800F60002300A128A1547240A128A1154303B
:100438000A128A15BE230A128A11831203135A0359
:100448005B04031D282A292A392A0E30B9003908E5
:10045800F60002300A128A1547240A128A11583007
:100468000A128A15BE230A128A1102308312031354
:100478005A065B04031D412A422A522A0E30B9004B
:100488003908F60002300A128A1547240A128A111E
:100498005C300A128A15BE230A128A1103308312AD
:1004A80003135A065B04031D5A2A5B2A6B2A0E3073
:1004B800B9003908F60002300A128A1547240A12D0
:1004C8008A1160300A128A15BE230A128A11033073
:1004D800831203135E065F04031D732A742A7F2A9E
:1004E80050085104031D792A7A2A7F2A0330DA003A
:1004F8000030DB002F2B03305E065F04031D852AC6
:10050800862A912A50035104031D8B2A8C2A912A8A
:100518000230DA000030DB002F2B04305E065F0467
:10052800031D972A982A9F2A52085304031D9D2ABF
:100538009E2A9F2A7A2A04305E065F04031DA52A94
:10054800A62AAD2A52035304031DAB2AAC2AAD2AAE
:100558008C2A05305E065F04031DB32AB42ABB2A21
:1005680054085504031DB92ABA2ABB2A7A2A053029
:100578005E065F04031DC12AC22AC92A5403550412
:10058800031DC72AC82AC92A8C2A08305E065F04B8
:10059800031DCF2AD02AD72A4E084F04031DD52A77
:1005A800D62AD72A7A2A08305E065F04031DDD2A78
:1005B800DE2AE52A4E034F04031DE32AE42AE52A2E
:1005C8008C2A5E035F04031DEA2AEB2A052B5A03D3
:1005D8005B04031DF02AF12A052B1A30831203133A
:1005E800BB005E30BA006D30B900B90BF92ABA0BFE
:1005F800F92ABB0BF92A002B83120313DA01DB015A
:100608002F2B02305E065F04031D0B2B0C2B132BC4
:100618005A035B04031D112B122B132BF12A0630EE
:100628005E065F04031D192B1A2B212B5A035B044A
:10063800031D1F2B202B212BF12A07305E065F0498
:10064800031D272B282B002B5A035B04031D2D2B7E
:100658002E2B002BF12A4908803AFF0080307F02B8
:10066800031D382B01304802031C3B2B3C2B522B1B
:100678008312031346084704031D432B442B522BB4
:10068800F601F60A01300A128A1547240A128A115D
:1006980001300A128A15BE230A128A118312031323
:1006A80048084904031D592B5A2B752B4708803AD3
:1006B800FF0080307F02031D632B01304602031CBC
:1006C800662B672B752BF601F60A01300A128A157C
:1006D80047240A128A110B300A128A15BE230A12FD
:1006E8008A118312031350085104031D7C2B7D2BA0
:1006F8008E2B0B30B9003908F60001300A128A1522
:1007080047240A128A1156300A128A15BE230A1281
:100718008A119E2B0B30B9003908F60001300A12F5
:100728008A1547240A128A111A300A128A15BE231A
:100738000A128A118312031352085304031DA52BAE
:10074800A62BB72B0D30B9003908F60001300A1274
:100758008A1547240A128A1156300A128A15BE23AE
:100768000A128A11C72B0D30B9003908F60001307A
:100778000A128A1547240A128A1121300A128A1588
:10078800BE230A128A118312031354085504031D49
:10079800CE2BCF2BE02B0F30B9003908F6000130F3
:1007A8000A128A1547240A128A1156300A128A1523
:1007B800BE230A128A11F02B0F30B9003908F6004F
:1007C80001300A128A1547240A128A1128300A129F
:1007D8008A15BE230A128A11831203134E084F0486
:1007E800031DF72BF82B092C1030B9003908F60037
:1007F80001300A128A1547240A128A1156300A1241
:100808008A15BE230A128A11192C1030B90039082A
:10081800F60001300A128A1547240A128A11693033
:100828000A128A15BE230A128A11831203135D085D
:10083800803AFF0080307F02031D242C01305C02C7
:10084800031C272C282C532C831203135E035F04EC
:10085800031D2F2C302C532C0130DA000030DB0024
:10086800C801C9010130C6070318C70A0030C70705
:10087800DC01DD0164300A128A11F1270A128A119B
:100888001A3083120313BB005E30BA006D30B90012
:10089800B90B4C2CBA0B4C2CBB0B4C2C532C831285
:1008A80003135D08803AFF0080307F02031D5E2C31
:1008B80001305C02031C612C622C9F2C02308312D5
:1008C80003135E065F04031D6A2C6B2C9F2C1A30E1
:1008D80083120313BB005E30BA006D30B900B90B48
:1008E800732CBA0B732CBB0B732C7A2C013083122C
:1008F8000313DA000030DB00C601C7010130C80766
:100908000318C90A0030C907DC01DD016D300A127D
:100918008A11F1270A128A111A3083120313BB00B5
:100928005E30BA006D30B900B90B982CBA0B982C10
:10093800BB0B982C9F2C831203135D08803AFF0091
:1009480080307F02031DAA2C01305C02031CAD2CF1
:10095800AE2CE62C0330831203135E065F04031DDE
:10096800B62CB72CE62C50085104031DBC2CBD2C0A
:10097800E62C0130D0000030D100DC01DD011A3056
:1009880083120313BB005E30BA006D30B900B90B97
:10099800CB2CBA0BCB2CBB0BCB2CD22C78300A121D
:1009A8008A11F1270A128A11033083120313BB003C
:1009B8008A30BA005530B900B90BE02CBA0BE02CDC
:1009C800BB0BE02C831203135D08803AFF008030D4
:1009D8007F02031DF12C01305C02031CF42CF52C62
:1009E8002B2D0330831203135E065F04031DFD2CB9
:1009F800FE2C2B2D50035104031D032D042D2B2DEC
:100A0800D001D101DC01DD011A3083120313BB00D0
:100A18005E30BA006D30B900B90B102DBA0B102D2D
:100A2800BB0B102D172D7A300A128A11F1270A12E2
:100A38008A11033083120313BB008A30BA00553081
:100A4800B900B90B252DBA0B252DBB0B252D83120B
:100A580003135D08803AFF0080307F02031D362DA6
:100A680001305C02031C392D3A2D722D043083129B
:100A780003135E065F04031D422D432D722D520899
:100A88005304031D482D492D722D0130D20000302A
:100A9800D300DC01DD011A3083120313BB005E3082
:100AA800BA006D30B900B90B572DBA0B572DBB0BD7
:100AB800572D5E2D63300A128A11F1270A128A1106
:100AC800033083120313BB008A30BA005530B900D3
:100AD800B90B6C2DBA0B6C2DBB0B6C2D8312031349
:100AE8005D08803AFF0080307F02031D7D2D0130B4
:100AF8005C02031C802D812DB72D04308312031353
:100B08005E065F04031D892D8A2DB72D52035304F9
:100B1800031D8F2D902DB72DD201D301DC01DD01EE
:100B28001A3083120313BB005E30BA006D30B9006F
:100B3800B90B9C2DBA0B9C2DBB0B9C2DA32D76308D
:100B48000A128A11F1270A128A1103308312031339
:100B5800BB008A30BA005530B900B90BB12DBA0BB9
:100B6800B12DBB0BB12D831203135D08803AFF0032
:100B780080307F02031DC22D01305C02031CC52D8D
:100B8800C62DFE2D0530831203135E065F04031D78
:100B9800CE2DCF2DFE2D54085504031DD42DD52D53
:100BA800FE2D0130D4000030D500DC01DD011A3003
:100BB80083120313BB005E30BA006D30B900B90B65
:100BC800E32DBA0BE32DBB0BE32DEA2D62300A129D
:100BD8008A11F1270A128A11033083120313BB000A
:100BE8008A30BA005530B900B90BF82DBA0BF82D78
:100BF800BB0BF82D831203135D08803AFF00803089
:100C08007F02031D092E01305C02031C0C2E0D2EE1
:100C1800432E0530831203135E065F04031D152E51
:100C2800162E432E54035504031D1B2E1C2E432E33
:100C3800D401D501DC01DD011A3083120313BB0096
:100C48005E30BA006D30B900B90B282EBA0B282EC9
:100C5800BB0B282E2F2E6E300A128A11F1270A128A
:100C68008A11033083120313BB008A30BA0055304F
:100C7800B900B90B3D2EBA0B3D2EBB0B3D2E83128E
:100C880003135D08803AFF0080307F02031D4E2E5B
:100C980001305C02031C512E522E7B2E063083122B
:100CA80003135E065F04031D5A2E5B2E7B2ED001B4
:100CB800D101D201D301D401D5010130DA000030CD
:100CC800DB00DC01DD0161300A128A11F1270A120A
:100CD8008A11033083120313BB008A30BA005530DF
:100CE800B900B90B752EBA0B752EBB0B752E831276
:100CF80003135D08803AFF0080307F02031D862EB3
:100D080001305C02031C892E8A2EB92E073083120B
:100D180003135E065F04031D922E932EB92E013035
:100D2800D0000030D1000130D2000030D3000130B3
:100D3800D4000030D5000130DA000030DB00DC01DF
:100D4800DD0173300A128A11F1270A128A11033061
:100D580083120313BB008A30BA005530B900B90BAF
:100D6800B32EBA0BB32EBB0BB32E831203135D083D
:100D7800803AFF0080307F02031DC42E01305C02E0
:100D8800031CC72EC82E1D2F0830831203135E06BE
:100D98005F04031DD02ED12E1D2F4E084F04031DB6
:100DA800D62ED72E1D2F0130CE000030CF00DC010B
:100DB800DD011A3083120313BB005E30BA006D30B8
:100DC800B900B90BE52EBA0BE52EBB0BE52EEC2EC0
:100DD800013083120313C2000030C3004308803A75
:100DE800FF0080307F02031DFB2E05304202031CEA
:100DF800FE2EFF2E002F1D2F70300A128A11F127A8
:100E08000A128A11033083120313BB008A30BA0016
:100E18005530B900B90B0E2FBA0B0E2FBB0B0E2F86
:100E2800013083120313C2070318C30A0030C30733
:100E3800F22E831203135D08803AFF0080307F0290
:100E4800031D282F01305C02031C2B2F2E2F0A12A2
:100E58008A152A2E0830831203135E065F04031DC9
:100E6800362F372F2B2F4E034F04031D3C2F3D2FBA
:100E78002B2FCE01CF01DC01DD011A3083120313C1
:100E8800BB005E30BA006D30B900B90B492FBA0B00
:100E9800492FBB0B492F502F2B2F0A128A110C28D0
:100EA80083120313A201F51F5A2F5B2F682FF20933
:100EB800F309F409F509F20A0319F30A0319F40A04
:100EC8000319F50AA201A20AF91F6B2F6C2F7B2FB9
:100ED800F609F709F809F909F60A0319F70A0319CF
:100EE800F80A0319F90A0130A0002008A206003008
:100EF800A6000030A5000030A4000030A30075084B
:100F080074047304720403198A2F8B2FD82FA1013C
:100F1800A10A9B2F0130A0000310F20DF30DF40D70
:100F2800F50DA00B902F0130A0002008A107F51F98
:100F38009E2F9F2F8E2F0130A0000310A30DA40D0C
:100F4800A50DA60DA00BA12F75087902031DB62FBC
:100F580074087802031DB62F73087702031DB62F95
:100F680072087602031CB92FBA2FC92F7208F6022D
:100F78007308031C730FF7027408031C740FF8023C
:100F88007508031C750FF902231401300310F50CC2
:100F9800F40CF30CF20CFF3E031DCA2F0130A10222
:100FA800031DD72FD82F9F2F22080319DC2FDD2FE1
:100FB800E82FA309A409A509A609A30A0319A40AE5
:100FC8000319A50A0319A60A2608F5002508F4003E
:100FD8002408F3002308F2000800F2008316031324
:100FE800981CF72FF82FF22F720883120313990019
:020FF8000800EF
:1010000008308A000408840A8207003420344434FB
:1010100061346E34673420344D346F3420340034FE
:10102000443461346E346734203444346F346E3465
:10103000673400344D346F346434653420343134D3
:1010400000344D346F346434653420343234003429
:101050004D346F34643465342034333400344334D5
:1010600068346F346E342D343E3400344D346F3474
:101070002034433475346134003444346E3467347E
:101080004334753461340034633468347534203447
:1010900078346534003441346C346C344F34663405
:1010A0006634003441346C346C3420344F346E3444
:1010B000003420342034203400344F344B34203476
:1010C00000344F344E34203400344F3446344634E8
:1010D00000342534753400343A3400347834003424
:10168A0064008001840A0406031900340406462B08
:10169A004130831203139F00C030831603139F0047
:1016AA0008008B170B178B160B118B17FB30831245
:1016BA00031381008316031381120112811101148D
:1016CA00811401150800F500831203130810750828
:1016DA000A128A159D230A128A1583120313081502
:1016EA001A30F400F830F300F30B792BF40B792B52
:1016FA00000083120313081108000B1D852B862B8B
:10170A00962B0B110130FA070318FB0A0030FB076E
:10171A004C307A067B04031D932B942B962BFA01EB
:10172A00FB0171088A00700E8300FE0E7E0E09000E
:10173A00F200831203138810721CA42BA52BA72B6B
:10174A000816A82B0812F21CAB2BAC2BAE2B881652
:10175A00AF2B8812721DB22BB32BB52B0817B62BE1
:10176A000813F21DB92BBA2BBC2B8817BD2B881373
:10177A000800F900F701F801D52B770879078400EA
:10178A000A128A1500200A128A150A128A150E24CC
:10179A000A128A150130F7070318F80A0030F80709
:1017AA007708790784000A128A1500200A128A1516
:1017BA00003A031DE12BE22BC22B0800F600013090
:1017CA00F4007408831203139F057608F4000230AC
:1017DA000310F40DFF3E031DED2B0310740DF500ED
:1017EA0075089F040D30F500FB30F400F40BFB2B59
:1017FA00F50BFB2B002C831203131F151F19062C44
:10180A00072C032C1E08F300831603131E08F2008C
:10181A000800F60076080F39F3007308F40076081A
:10182A00F039F3007308F5008312031308147508DE
:10183A00F30004300310F30CFF3E031D1F2C730842
:10184A000A128A159D230A128A1583120313081590
:10185A004230F300F30B2F2C0000831203130811FC
:10186A0074080A128A159D230A128A158312031311
:10187A0008154230F300F30B402C000083120313C7
:10188A000811080083120313A0002003031D4E2C25
:10189A004F2C742C76087F3EF7007708A3002308A4
:1018AA00F70004300310F70CFF3E031D572C77088E
:1018BA00F8007808A10023080F39F7007708A2007A
:1018CA0021080A128A1568230A128A158312031339
:1018DA0022080A128A1568230A128A159E2C0230D7
:1018EA002006031D792C7A2C9E2C7608BF3EF70021
:1018FA007708A3002308F70004300310F70CFF3E13
:10190A00031D822C7708F8007808A10023080F39F4
:10191A00F7007708A20021080A128A1568230A121A
:10192A008A158312031322080A128A1568230A12D7
:10193A008A15080000300A128A159D230A128A1590
:10194A008230F700DD30F600F60BA92CF70BA92C34
:10195A00AE2C03300A128A1568230A128A1521301E
:10196A00F7007630F600F60BB82CF70BB82C00000F
:10197A0003300A128A1568230A128A154830F700BA
:10198A006C30F600F60BC72CF70BC72C000003309F
:10199A000A128A1568230A128A1502300A128A154F
:1019AA0068230A128A1502300A128A1568230A1253
:1019BA008A1508300A128A1568230A128A15003015
:1019CA000A128A1568230A128A150C300A128A1515
:1019DA0068230A128A1500300A128A1568230A1225
:1019EA008A1506300A128A1568230A128A1508000F
:1019FA00831203132708AB002808AC002908AD009E
:101A0A002A08AE0006300310AB0DAC0DAD0DAE0DBD
:101A1A00FF3E031D082D2E08F5002D08F4002C08A2
:101A2A00F3002B08F2002708AF002808B0002908A5
:101A3A00B1002A08B20006300310AF0DB00DB10D87
:101A4A00B20DFF3E031D212D0030B3002D30B4002E
:101A5A003130B5000130B6002F08B3023008031C3C
:101A6A00300F382D392DB4023108031C310F3E2DA9
:101A7A003F2DB5023208031C320F442D452DB60204
:101A8A003608F9003508F8003408F7003308F6007C
:101A9A000A128A1154270A128A1573088312031329
:101AAA00B8007208B7000130380200300319370253
:101ABA00031C602D612DBD2D2708AB002808AC0042
:101ACA002908AD002A08AE0004300310AB0DAC0D96
:101ADA00AD0DAE0DFF3E031D6A2D2E08F5002D0833
:101AEA00F4002C08F3002B08F2002708AF0028089E
:101AFA00B0002908B1002A08B20004300310AF0D63
:101B0A00B00DB10DB20DFF3E031D832D0030B300A1
:101B1A002D30B4003130B5000130B6002F08B302C1
:101B2A003008031C300F9A2D9B2DB4023108031C78
:101B3A00310FA02DA12DB5023208031C320FA62D9C
:101B4A00A72DB6023608F9003508F8003408F70060
:101B5A003308F6000A128A1154270A128A157308E2
:101B6A0083120313B8007208B700831603131815FB
:101B7A000130831238020030031937020318C62DC8
:101B8A00C72DD92D3708831603139900181283120B
:101B9A000313981783160313871707178312031360
:101BAA001816831603139816080083160313880160
:101BBA00003083120313AA000030A9002530A800C0
:101BCA008030A7000A128A15FD240A128A150A1201
:101BDA008A1556230A128A1583160313870183125C
:101BEA00031387018316031386140A128A154D23D9
:101BFA000A128A150A128A159F240A128A15831252
:101C0A000313BE01BF01C001C101CA01CB01CC014E
:101C1A00CD01C401C501DC01DD010130C60000307F
:101C2A00C700C801C9010130DE000030DF00DA0157
:101C3A00DB010130D0000030D1000130D200003089
:101C4A00D300D401D501CE01CF01F601F60A023044
:101C5A000A128A1547240A128A152A300A128A1584
:101C6A00BE230A128A1500300A128A15E3230A12C1
:101C7A008A15730883120313D7007208D60001303D
:101C8A000A128A15E3230A128A15730883120313A8
:101C9A00D9007208D8005708803AFF0080307F02C6
:101CAA00031D592EC830560203185C2E5D2E9E2E37
:101CBA00831203135908803AFF0080307F02031D04
:101CCA00682EC830580203186B2E6C2E9E2E0130D7
:101CDA0083120313CA070318CB0A0030CB07C401C7
:101CEA00C501DC01DD01CC01CD014B08803AFF00C2
:101CFA0080307F02031D832E01304A02031C862E88
:101D0A00872E9E2EFF3083120313DE070318DF0A85
:101D1A00FF30DF071A3083120313BB005E30BA00AC
:101D2A006D30B900B90B972EBA0B972EBB0B972EB5
:101D3A009E2E831203135708803AFF0083307F02D6
:101D4A00031DA92E21305602031CAC2EAD2EEE2EF9
:101D5A00831203135908803AFF0080307F02031D63
:101D6A00B82EC83058020318BB2EBC2EEE2E0130F6
:101D7A0083120313CA070318CB0A0030CB07C40126
:101D8A00C501DC01DD01CC01CD014B08803AFF0021
:101D9A0080307F02031DD32E01304A02031CD62E47
:101DAA00D72EEE2EFF3083120313DE070318DF0A45
:101DBA00FF30DF071A3083120313BB005E30BA000C
:101DCA006D30B900B90BE72EBA0BE72EBB0BE72E25
:101DDA00EE2E831203135708803AFF0083307F02E6
:101DEA00031DF92E213056020318FC2EFD2E4D2F0D
:101DFA00831203135708803AFF0080307F02031DC5
:101E0A00082FC8305602031C0B2F0C2F4D2F83129C
:101E1A0003135908803AFF0080307F02031D172FF1
:101E2A00C830580203181A2F1B2F4D2F0130831266
:101E3A000313CA070318CB0A0030CB07C401C50134
:101E4A00DC01DD01CC01CD014B08803AFF00803076
:101E5A007F02031D322F01304A02031C352F362F11
:101E6A004D2FFF3083120313DE070318DF0AFF30FA
:101E7A00DF071A3083120313BB005E30BA006D30DD
:101E8A00B900B90B462FBA0B462FBB0B462F4D2F65
:101E9A00831203135708803AFF0080307F02031D24
:101EAA00582FC830560203185B2F5C2F9D2F8312C0
:101EBA0003135908803AFF0083307F02031D672FFE
:101ECA0021305802031C6A2F6B2F9D2F0130831279
:101EDA000313CC070318CD0A0030CD07CA01CB0182
:101EEA00C401C501DC01DD014D08803AFF008030E4
:101EFA007F02031D822F01304C02031C852F862F7F
:101F0A009D2F013083120313DE070318DF0A003006
:101F1A00DF071A3083120313BB005E30BA006D303C
:101F2A00B900B90B962FBA0B962FBB0B962F9D2F84
:101F3A00831203135708803AFF0083307F02031D80
:101F4A00A82F21305602031CAB2FAC2FED2F831282
:101F5A0003135908803AFF0083307F02031DB72F0D
:101F6A0021305802031CBA2FBB2FED2F01308312E8
:101F7A000313CC070318CD0A0030CD07CA01CB01E1
:101F8A00C401C501DC01DD014D08803AFF00803043
:101F9A007F02031DD22F01304C02031CD52FD62FEE
:101FAA00ED2F013083120313DE070318DF0A003016
:101FBA00DF071A3083120313BB005E30BA006D309C
:101FCA00B900B90BE62FBA0BE62FBB0BE62FED2FA4
:101FDA00831203135708803AFF0083307F02031DE0
:101FEA00F82F213056020318FD2F0A128A112628CB
:061FFA000A128A1176288C
:02400E007A3FF7
:00000001FF
